{
  "contractName": "Escrow",
  "abi": [
    {
      "inputs": [
        {
          "internalType": "address payable",
          "name": "_arbiter",
          "type": "address"
        }
      ],
      "payable": false,
      "stateMutability": "nonpayable",
      "type": "constructor"
    },
    {
      "constant": true,
      "inputs": [],
      "name": "arbiter",
      "outputs": [
        {
          "internalType": "address payable",
          "name": "",
          "type": "address"
        }
      ],
      "payable": false,
      "stateMutability": "view",
      "type": "function"
    },
    {
      "constant": true,
      "inputs": [
        {
          "internalType": "uint256",
          "name": "",
          "type": "uint256"
        }
      ],
      "name": "buyer",
      "outputs": [
        {
          "internalType": "address payable",
          "name": "",
          "type": "address"
        }
      ],
      "payable": false,
      "stateMutability": "view",
      "type": "function"
    },
    {
      "constant": true,
      "inputs": [],
      "name": "currentState",
      "outputs": [
        {
          "internalType": "enum Escrow.State",
          "name": "",
          "type": "uint8"
        }
      ],
      "payable": false,
      "stateMutability": "view",
      "type": "function"
    },
    {
      "constant": true,
      "inputs": [],
      "name": "winner",
      "outputs": [
        {
          "internalType": "address payable",
          "name": "",
          "type": "address"
        }
      ],
      "payable": false,
      "stateMutability": "view",
      "type": "function"
    },
    {
      "constant": false,
      "inputs": [
        {
          "internalType": "address payable",
          "name": "buy_ad",
          "type": "address"
        }
      ],
      "name": "participate",
      "outputs": [],
      "payable": false,
      "stateMutability": "nonpayable",
      "type": "function"
    },
    {
      "constant": false,
      "inputs": [],
      "name": "draw",
      "outputs": [],
      "payable": true,
      "stateMutability": "payable",
      "type": "function"
    },
    {
      "constant": false,
      "inputs": [],
      "name": "reset",
      "outputs": [],
      "payable": false,
      "stateMutability": "nonpayable",
      "type": "function"
    },
    {
      "constant": true,
      "inputs": [],
      "name": "currentStakes",
      "outputs": [
        {
          "internalType": "uint256",
          "name": "",
          "type": "uint256"
        }
      ],
      "payable": false,
      "stateMutability": "view",
      "type": "function"
    }
  ],
  "bytecode": "0x608060405234801561001057600080fd5b5060405161045e38038061045e8339818101604052602081101561003357600080fd5b5051600380546001600160a01b039092166001600160a01b03199283168117909155600480549092161790556103f08061006e6000396000f3fe60806040526004361061007b5760003560e01c8063b91038c71161004e578063b91038c714610130578063d826f88f14610163578063dfbf53ae14610178578063fe25e00a1461018d5761007b565b80630c3f6acf146100805780630eecae21146100b95780634dd4acaf146100c3578063552b926114610109575b600080fd5b34801561008c57600080fd5b506100956101a2565b604051808260028111156100a557fe5b60ff16815260200191505060405180910390f35b6100c16101ab565b005b3480156100cf57600080fd5b506100ed600480360360208110156100e657600080fd5b50356102a5565b604080516001600160a01b039092168252519081900360200190f35b34801561011557600080fd5b5061011e6102c0565b60408051918252519081900360200190f35b34801561013c57600080fd5b506100c16004803603602081101561015357600080fd5b50356001600160a01b03166102c4565b34801561016f57600080fd5b506100c161031c565b34801561018457600080fd5b506100ed61039d565b34801561019957600080fd5b506100ed6103ac565b60005460ff1681565b6004546001600160a01b03163314610206576040805162461bcd60e51b8152602060048201526019602482015278115e18db1d5cda5d99481858d8d95cdcc81c995c5d5a5c9959603a1b604482015290519081900360640190fd5b60018060005460ff16600281111561021a57fe5b1461022457600080fd5b6004546040516001600160a01b039091169060009060029082818181858883f1935050505015801561025a573d6000803e3d6000fd5b506003546040516001600160a01b03909116904780156108fc02916000818181858888f19350505050158015610294573d6000803e3d6000fd5b50506000805460ff19166002179055565b6001602052600090815260409020546001600160a01b031681565b4790565b60008060005460ff1660028111156102d857fe5b146102e257600080fd5b506002805460019081019182905560009182526020526040902080546001600160a01b0319166001600160a01b0392909216919091179055565b6004546001600160a01b03163314610377576040805162461bcd60e51b8152602060048201526019602482015278115e18db1d5cda5d99481858d8d95cdcc81c995c5d5a5c9959603a1b604482015290519081900360640190fd5b60028060005460ff16600281111561038b57fe5b1461039557600080fd5b506000600255565b6003546001600160a01b031681565b6004546001600160a01b03168156fea265627a7a7231582099a7ad6868018ff86d4aae4b0a7489384bd1c9c8018b54a7da5ad09b37cfb74464736f6c63430005100032",
  "source": "pragma solidity ^0.5.0;\n\ncontract Escrow {\n    enum State {OPEN, CLOSED, DONE}\n\n    State public currentState;\n\n    mapping(uint=>address payable) public buyer;\n    uint buyer_count;\n    address payable public winner;\n    address payable public arbiter;\n\n    modifier buyerOnly(){\n        bool condition = false;\n        for(uint x=1;x<=buyer_count;x++){\n            if(msg.sender == buyer[x]){\n                condition = true;\n            }\n        }\n        require(condition || msg.sender == arbiter,\"Not permissioned to make function call\");\n        _;\n    }\n\n    modifier winnerOnly(){\n        require(msg.sender == arbiter || msg.sender == winner,\"Not permissioned to make function call\");\n        _;\n    }\n\n    modifier arbiterOnly() {\n        require(msg.sender == arbiter,\"Exclusive access required\");\n        _;\n    }\n\n    modifier inState(State expectedState){\n        require(currentState == expectedState);\n        _;\n    }\n\n    constructor(address payable _arbiter) public{\n        winner = _arbiter;\n        arbiter = _arbiter;\n    }\n\n    function participate(address payable buy_ad) public inState(State.OPEN){\n        buyer_count++;\n        buyer[buyer_count] = buy_ad;\n    }\n\n    function decideWinner() private inState(State.CLOSED){\n        // logic to decide winner here \n        winner = arbiter;\n    }\n\n    function draw() public payable arbiterOnly inState(State.CLOSED){\n        // decide the winner \n\n        // check if the balance has more than 2 coins\n        arbiter.transfer(2);\n        winner.transfer(address(this).balance);\n        currentState = State.DONE;\n    }\n\n    function reset() public arbiterOnly inState(State.DONE){\n        // make the current state as the done state\n        buyer_count = 0;\n        \n    }\n\n    function currentStakes() public view returns(uint){\n        return address(this).balance;\n    }\n\n}",
  "sourcePath": "/home/einzelganger/Storage/BlockChain/BIBENDUM/contracts/Escrow.sol",
  "compiler": {
    "name": "solc",
    "version": "0.5.16+commit.9c3226ce.Emscripten.clang"
  },
  "schemaVersion": "3.4.1",
  "updatedAt": "2021-07-22T11:33:32.476Z",
  "networkType": "ethereum",
  "devdoc": {
    "methods": {}
  },
  "userdoc": {
    "methods": {}
  }
}