{
  "contractName": "Escrow",
  "abi": [
    {
      "inputs": [
        {
          "internalType": "address payable",
          "name": "_billingAddress",
          "type": "address"
        }
      ],
      "payable": false,
      "stateMutability": "nonpayable",
      "type": "constructor"
    },
    {
      "constant": true,
      "inputs": [],
      "name": "billingAddress",
      "outputs": [
        {
          "internalType": "address payable",
          "name": "",
          "type": "address"
        }
      ],
      "payable": false,
      "stateMutability": "view",
      "type": "function"
    },
    {
      "constant": true,
      "inputs": [],
      "name": "currentState",
      "outputs": [
        {
          "internalType": "enum Escrow.State",
          "name": "",
          "type": "uint8"
        }
      ],
      "payable": false,
      "stateMutability": "view",
      "type": "function"
    },
    {
      "constant": true,
      "inputs": [
        {
          "internalType": "uint256",
          "name": "",
          "type": "uint256"
        }
      ],
      "name": "participants",
      "outputs": [
        {
          "internalType": "uint256",
          "name": "value",
          "type": "uint256"
        },
        {
          "internalType": "address payable",
          "name": "from",
          "type": "address"
        }
      ],
      "payable": false,
      "stateMutability": "view",
      "type": "function"
    },
    {
      "constant": true,
      "inputs": [],
      "name": "ticket_amount",
      "outputs": [
        {
          "internalType": "uint256",
          "name": "",
          "type": "uint256"
        }
      ],
      "payable": false,
      "stateMutability": "view",
      "type": "function"
    },
    {
      "constant": true,
      "inputs": [],
      "name": "ticket_price",
      "outputs": [
        {
          "internalType": "uint256",
          "name": "",
          "type": "uint256"
        }
      ],
      "payable": false,
      "stateMutability": "view",
      "type": "function"
    },
    {
      "constant": true,
      "inputs": [],
      "name": "winner",
      "outputs": [
        {
          "internalType": "address payable",
          "name": "",
          "type": "address"
        }
      ],
      "payable": false,
      "stateMutability": "view",
      "type": "function"
    },
    {
      "constant": true,
      "inputs": [
        {
          "internalType": "uint256",
          "name": "externalPaymentId",
          "type": "uint256"
        }
      ],
      "name": "getData",
      "outputs": [
        {
          "internalType": "address",
          "name": "",
          "type": "address"
        }
      ],
      "payable": false,
      "stateMutability": "view",
      "type": "function"
    },
    {
      "constant": true,
      "inputs": [],
      "name": "getPrice",
      "outputs": [
        {
          "internalType": "uint256",
          "name": "",
          "type": "uint256"
        }
      ],
      "payable": false,
      "stateMutability": "view",
      "type": "function"
    },
    {
      "constant": false,
      "inputs": [],
      "name": "close",
      "outputs": [],
      "payable": false,
      "stateMutability": "nonpayable",
      "type": "function"
    },
    {
      "constant": false,
      "inputs": [],
      "name": "pay",
      "outputs": [
        {
          "internalType": "address",
          "name": "",
          "type": "address"
        }
      ],
      "payable": true,
      "stateMutability": "payable",
      "type": "function"
    },
    {
      "constant": true,
      "inputs": [],
      "name": "getStatus",
      "outputs": [
        {
          "internalType": "string",
          "name": "",
          "type": "string"
        }
      ],
      "payable": false,
      "stateMutability": "view",
      "type": "function"
    },
    {
      "constant": true,
      "inputs": [
        {
          "internalType": "string",
          "name": "_str",
          "type": "string"
        }
      ],
      "name": "generateHash",
      "outputs": [
        {
          "internalType": "uint256",
          "name": "",
          "type": "uint256"
        }
      ],
      "payable": false,
      "stateMutability": "view",
      "type": "function"
    },
    {
      "constant": false,
      "inputs": [],
      "name": "transferFunds",
      "outputs": [],
      "payable": true,
      "stateMutability": "payable",
      "type": "function"
    },
    {
      "constant": false,
      "inputs": [],
      "name": "callWinner",
      "outputs": [],
      "payable": false,
      "stateMutability": "nonpayable",
      "type": "function"
    }
  ],
  "bytecode": "0x608060405234801561001057600080fd5b50604051610b04380380610b048339818101604052602081101561003357600080fd5b5051600080546001600160a01b0319166001600160a01b0383161781556001819055671bc16d674ec800006002556003805460ff60a01b1916600160a01b83021790555050610a7d806100876000396000f3fe6080604052600436106100dd5760003560e01c806343d726d61161007f578063b063152a11610059578063b063152a146102ae578063d3abd4c614610361578063dfbf53ae14610376578063e5b55f2f1461038b576100dd565b806343d726d6146101fa5780634e69d5601461020f57806398d5fdca14610299576100dd565b806319d41c69116100bb57806319d41c69146101765780631b9265b81461019d57806335c1d349146101a55780633c68eb81146101f0576100dd565b80630178fe3f146100e25780630c3f6acf1461012857806314e18a5a14610161575b600080fd5b3480156100ee57600080fd5b5061010c6004803603602081101561010557600080fd5b50356103a0565b604080516001600160a01b039092168252519081900360200190f35b34801561013457600080fd5b5061013d6103db565b6040518082600281111561014d57fe5b60ff16815260200191505060405180910390f35b34801561016d57600080fd5b5061010c6103eb565b34801561018257600080fd5b5061018b6103fa565b60408051918252519081900360200190f35b61010c610400565b3480156101b157600080fd5b506101cf600480360360208110156101c857600080fd5b50356104f7565b604080519283526001600160a01b0390911660208301528051918290030190f35b6101f8610519565b005b34801561020657600080fd5b506101f86107cb565b34801561021b57600080fd5b5061022461081b565b6040805160208082528351818301528351919283929083019185019080838360005b8381101561025e578181015183820152602001610246565b50505050905090810190601f16801561028b5780820380516001836020036101000a031916815260200191505b509250505060405180910390f35b3480156102a557600080fd5b5061018b6108e7565b3480156102ba57600080fd5b5061018b600480360360208110156102d157600080fd5b8101906020810181356401000000008111156102ec57600080fd5b8201836020820111156102fe57600080fd5b8035906020019184600183028401116401000000008311171561032057600080fd5b91908080601f0160208091040260200160405190810160405280939291908181526020018383808284376000920191909152509295506108eb945050505050565b34801561036d57600080fd5b506101f8610978565b34801561038257600080fd5b5061010c61098c565b34801561039757600080fd5b5061018b61099b565b600080821180156103b357506001548211155b6103bc57600080fd5b506000908152600460205260409020600101546001600160a01b031690565b600354600160a01b900460ff1681565b6000546001600160a01b031681565b60025481565b600080600354600160a01b900460ff16600281111561041b57fe5b1461046d576040805162461bcd60e51b815260206004820152601e60248201527f4c6f747465727920726f756e6420636c6f73656420666f7220656e7472790000604482015290519081900360640190fd5b60025434146104ad5760405162461bcd60e51b8152600401808060200182810382526027815260200180610a226027913960400191505060405180910390fd5b5060018054810180825560009081526004602052604080822034905582548252808220830180546001600160a01b0319163317905582548252902001546001600160a01b03165b90565b600460205260009081526040902080546001909101546001600160a01b031682565b6001600354600160a01b900460ff16600281111561053357fe5b14610585576040805162461bcd60e51b815260206004820152601c60248201527f4c6f747465727920726f756e64206e6f742079657420636c6f73656400000000604482015290519081900360640190fd5b6003805460ff60a01b1916600160a11b17905560408051602081019091526000815260015b600154811161066557600081815260046020908152604091829020600101549151845185936001600160a01b031692918201918291908501908083835b602083106106065780518252601f1990920191602091820191016105e7565b6001836020036101000a038019825116818451168082178552505050505050905001826001600160a01b03166001600160a01b031660601b815260140192505050604051602081830303815290604052915080806001019150506105aa565b5060005b600160fa1b82826040516020018083805190602001908083835b602083106106a25780518252601f199092019160209182019101610683565b51815160209384036101000a600019018019909216911617905292019384525060408051808503815293820190528251920191909120929092111591506106ed905057600101610669565b600061075d83836040516020018083805190602001908083835b602083106107265780518252601f199092019160209182019101610707565b51815160209384036101000a60001901801990921691161790529201938452506040805180850381529390910190525090506108eb565b60008181526004602052604080822060010154600380546001600160a01b0319166001600160a01b039283161790819055915193945016914780156108fc0292909190818181858888f193505050501580156107bd573d6000803e3d6000fd5b506107c66109a1565b505050565b6000546001600160a01b031633146107e257600080fd5b6000600354600160a01b900460ff1660028111156107fc57fe5b1461080657600080fd5b6003805460ff60a01b1916600160a01b179055565b60606000600354600160a01b900460ff16600281111561083757fe5b141561085e575060408051808201909152600481526327b832b760e11b60208201526104f4565b6001600354600160a01b900460ff16600281111561087857fe5b14156108a1575060408051808201909152600681526510db1bdcd95960d21b60208201526104f4565b6002600354600160a01b900460ff1660028111156108bb57fe5b14156104f4575060408051808201909152600981526810dbdb5c1b195d195960ba1b60208201526104f4565b4790565b600080826040516020018082805190602001908083835b602083106109215780518252601f199092019160209182019101610902565b6001836020036101000a0380198251168184511680821785525050505050509050019150506040516020818303038152906040528051906020012060001c9050600154818161096c57fe5b06600101915050919050565b600380546001600160a01b03191633179055565b6003546001600160a01b031681565b60015481565b6002600354600160a01b900460ff1660028111156109bb57fe5b14610a0d576040805162461bcd60e51b815260206004820152601c60248201527f4c6f747465727920726f756e64206e6f742079657420636c6f73656400000000604482015290519081900360640190fd5b6003805460ff60a01b19169055600060015556fe416d6f756e7420697320696e636f727265637420666f7220627579696e672031207469636b6574a265627a7a723158201e70fb3cd5211bfe69f1dfba62ddca9e84c28773e59bbdd49f627c75ed04b38564736f6c63430005100032",
  "source": "pragma solidity ^0.5.0;\n\ncontract Escrow {\n\n    struct Transaction {\n        uint value;\n        address payable from;\n    }\n\n    enum State {OPEN,CLOSED,COMPLETED}\n    address payable public billingAddress;\n    uint public ticket_amount;\n    uint public ticket_price;\n    address payable public winner;\n    State public currentState;\n    mapping(uint=>Transaction) public participants;\n    modifier onlyOwner(){\n        require(msg.sender == billingAddress);\n        _;\n    }    \n\n  constructor(address payable _billingAddress)public{\n      billingAddress = _billingAddress;\n      ticket_amount = 0;\n      ticket_price = 2000000000000000000;\n      currentState = State.OPEN;\n  }\n\n  function getData(uint externalPaymentId) public view returns (address){\n\t\t\trequire(externalPaymentId > 0 && externalPaymentId <= ticket_amount);\n\t\t\treturn participants[externalPaymentId].from;\n\t}\n\n  function getPrice()public view returns(uint){\n      return address(this).balance;\n\t}\n\n  // function startNewPayment(uint externalPaymentId, uint price) public onlyOwner{\n\t\t\n  // }\n\n  function close() public onlyOwner{\n      require(currentState == State.OPEN);\n      currentState = State.CLOSED;\n  }\n\n  function pay()public payable returns (address){\n      require(currentState == State.OPEN,'Lottery round closed for entry');\n      require(msg.value == ticket_price, \"Amount is incorrect for buying 1 ticket\");\n      ticket_amount++;\n      participants[ticket_amount].value = msg.value;\n      participants[ticket_amount].from  = msg.sender;\n      return participants[ticket_amount].from;\n  }\n\n    function decideWinner() private {\n        require(currentState == State.CLOSED,'Lottery round not yet closed');\n        // call function to close the lottery\n        // random_generator type of thing\n        winner = msg.sender;    // this is horseshit\n    }\n\n    function reset() private {\n        require(currentState == State.COMPLETED,'Lottery round not yet closed');\n        // call function to close the lottery\n        currentState = State.OPEN;\n        ticket_amount = 0;\n    }\n\n    function getStatus() public view returns (string memory){\n        if(currentState == State.OPEN){\n            return \"Open\";\n        }\n        if(currentState == State.CLOSED){\n            return \"Closed\";\n        }\n        if(currentState == State.COMPLETED){\n            return \"Completed\";\n        }\n    }\n\n    // testing remains\n    function  generateHash(string memory _str) public view returns (uint) {\n        uint random = uint(keccak256(abi.encodePacked(_str)));\n        return (random%ticket_amount) + 1;\n    }\n    \n    // testing remains\n    function transferFunds() public payable {\n        require(currentState == State.CLOSED,'Lottery round not yet closed');\n        currentState = State.COMPLETED;\n        string memory s1 = \"\";\n        for(uint x=1;x<=ticket_amount;x++){\n            s1 = string(abi.encodePacked(s1,participants[x].from));\n        }\n        uint nonce = 0;\n\n        // relatively easy for now\n        while(uint(keccak256(abi.encodePacked(s1,nonce)))> uint((1<<250))){\n            nonce++;\n        }\n        uint winner_hash = generateHash(string(abi.encodePacked(s1,nonce)));\n\n        winner = participants[winner_hash].from;\n        winner.transfer(address(this).balance);\n        reset();\n    }\n\n    function callWinner() public{\n        winner = msg.sender;\n    }\n\n}\n",
  "sourcePath": "/home/einzelganger/Storage/BlockChain/BIBENDUM/contracts/Escrow.sol",
  "compiler": {
    "name": "solc",
    "version": "0.5.16+commit.9c3226ce.Emscripten.clang"
  },
  "schemaVersion": "3.4.1",
  "updatedAt": "2021-07-29T10:20:46.201Z",
  "networkType": "ethereum",
  "devdoc": {
    "methods": {}
  },
  "userdoc": {
    "methods": {}
  }
}