{
  "contractName": "Payment",
  "abi": [
    {
      "inputs": [
        {
          "internalType": "address payable",
          "name": "_billingAddress",
          "type": "address"
        }
      ],
      "payable": false,
      "stateMutability": "nonpayable",
      "type": "constructor"
    },
    {
      "constant": true,
      "inputs": [],
      "name": "billingAddress",
      "outputs": [
        {
          "internalType": "address payable",
          "name": "",
          "type": "address"
        }
      ],
      "payable": false,
      "stateMutability": "view",
      "type": "function"
    },
    {
      "constant": true,
      "inputs": [
        {
          "internalType": "uint256",
          "name": "",
          "type": "uint256"
        }
      ],
      "name": "participants",
      "outputs": [
        {
          "internalType": "uint256",
          "name": "value",
          "type": "uint256"
        },
        {
          "internalType": "address payable",
          "name": "from",
          "type": "address"
        }
      ],
      "payable": false,
      "stateMutability": "view",
      "type": "function"
    },
    {
      "constant": true,
      "inputs": [],
      "name": "ticket_amount",
      "outputs": [
        {
          "internalType": "uint256",
          "name": "",
          "type": "uint256"
        }
      ],
      "payable": false,
      "stateMutability": "view",
      "type": "function"
    },
    {
      "constant": true,
      "inputs": [],
      "name": "ticket_price",
      "outputs": [
        {
          "internalType": "uint256",
          "name": "",
          "type": "uint256"
        }
      ],
      "payable": false,
      "stateMutability": "view",
      "type": "function"
    },
    {
      "constant": true,
      "inputs": [
        {
          "internalType": "uint256",
          "name": "externalPaymentId",
          "type": "uint256"
        }
      ],
      "name": "getData",
      "outputs": [
        {
          "internalType": "address",
          "name": "",
          "type": "address"
        }
      ],
      "payable": false,
      "stateMutability": "view",
      "type": "function"
    },
    {
      "constant": true,
      "inputs": [],
      "name": "getPrice",
      "outputs": [
        {
          "internalType": "uint256",
          "name": "",
          "type": "uint256"
        }
      ],
      "payable": false,
      "stateMutability": "view",
      "type": "function"
    },
    {
      "constant": false,
      "inputs": [],
      "name": "pay",
      "outputs": [],
      "payable": true,
      "stateMutability": "payable",
      "type": "function"
    }
  ],
  "bytecode": "0x608060405234801561001057600080fd5b5060405161032e38038061032e8339818101604052602081101561003357600080fd5b5051600080546001600160a01b039092166001600160a01b0319909216919091178155600155600280556102c28061006c6000396000f3fe6080604052600436106100705760003560e01c80631b9265b81161004e5780631b9265b8146100f757806335c1d3491461010157806398d5fdca1461014c578063e5b55f2f1461016157610070565b80630178fe3f1461007557806314e18a5a146100bb57806319d41c69146100d0575b600080fd5b34801561008157600080fd5b5061009f6004803603602081101561009857600080fd5b5035610176565b604080516001600160a01b039092168252519081900360200190f35b3480156100c757600080fd5b5061009f6101b1565b3480156100dc57600080fd5b506100e56101c0565b60408051918252519081900360200190f35b6100ff6101c6565b005b34801561010d57600080fd5b5061012b6004803603602081101561012457600080fd5b503561023a565b604080519283526001600160a01b0390911660208301528051918290030190f35b34801561015857600080fd5b506100e561025c565b34801561016d57600080fd5b506100e5610260565b6000808211801561018957506001548211155b61019257600080fd5b506000908152600360205260409020600101546001600160a01b031690565b6000546001600160a01b031681565b60025481565b60025434146102065760405162461bcd60e51b81526004018080602001828103825260278152602001806102676027913960400191505060405180910390fd5b6001805481018082556000908152600360205260408082203490558254825290200180546001600160a01b03191633179055565b600360205260009081526040902080546001909101546001600160a01b031682565b4790565b6001548156fe416d6f756e7420697320696e636f727265637420666f7220627579696e672031207469636b6574a265627a7a7231582054d2f789593dccc4871e9bff49dae067f76cb12732f71f7b53f7e94c02624ab564736f6c63430005100032",
  "source": "pragma solidity ^0.5.0;\n\ncontract Payment {\n\n    struct Transaction {\n        uint value;\n        address payable from;\n    }\n\n    address payable public billingAddress;\n    uint public ticket_amount;\n    uint public ticket_price;\n    mapping(uint=>Transaction) public participants;\n    modifier onlyOwner(){\n        require(msg.sender == billingAddress);\n        _;\n    }    \n\n  constructor(address payable _billingAddress)public{\n      billingAddress = _billingAddress;\n      ticket_amount = 0;\n      ticket_price = 2;\n  }\n\n  function getData(uint externalPaymentId) public view returns (address){\n\t\t\trequire(externalPaymentId > 0 && externalPaymentId <= ticket_amount);\n\t\t\treturn participants[externalPaymentId].from;\n\t}\n\n  function getPrice()public view returns(uint){\n      return address(this).balance;\n\t}\n\n  // function startNewPayment(uint externalPaymentId, uint price) public onlyOwner{\n\t\t\n  // }\n\n  function pay()public payable{\n      require(msg.value == ticket_price, \"Amount is incorrect for buying 1 ticket\");\n      ticket_amount++;\n      participants[ticket_amount].value = msg.value;\n      participants[ticket_amount].from  = msg.sender;\n  }\n\n  // function complete(uint externalPaymentId)public onlyOwner{\n  //     // called when payment is complete\n  // }\n\n  // function refund(uint externalPaymentId) public onlyOwner{\n  //     // idk about this fs\n  // }\n}\n",
  "sourcePath": "/home/einzelganger/Storage/BlockChain/BIBENDUM/contracts/Escrow.sol",
  "compiler": {
    "name": "solc",
    "version": "0.5.16+commit.9c3226ce.Emscripten.clang"
  },
  "schemaVersion": "3.4.1",
  "updatedAt": "2021-07-23T19:30:17.134Z",
  "devdoc": {
    "methods": {}
  },
  "userdoc": {
    "methods": {}
  }
}