{
  "contractName": "TodoList",
  "abi": [
    {
      "inputs": [],
      "payable": false,
      "stateMutability": "nonpayable",
      "type": "constructor"
    },
    {
      "constant": true,
      "inputs": [],
      "name": "taskCount",
      "outputs": [
        {
          "internalType": "uint256",
          "name": "",
          "type": "uint256"
        }
      ],
      "payable": false,
      "stateMutability": "view",
      "type": "function"
    },
    {
      "constant": true,
      "inputs": [
        {
          "internalType": "uint256",
          "name": "",
          "type": "uint256"
        }
      ],
      "name": "tasks",
      "outputs": [
        {
          "internalType": "uint256",
          "name": "id",
          "type": "uint256"
        },
        {
          "internalType": "string",
          "name": "content",
          "type": "string"
        },
        {
          "internalType": "bool",
          "name": "completed",
          "type": "bool"
        }
      ],
      "payable": false,
      "stateMutability": "view",
      "type": "function"
    },
    {
      "constant": false,
      "inputs": [
        {
          "internalType": "string",
          "name": "_content",
          "type": "string"
        }
      ],
      "name": "createTask",
      "outputs": [],
      "payable": false,
      "stateMutability": "nonpayable",
      "type": "function"
    },
    {
      "constant": false,
      "inputs": [
        {
          "internalType": "uint256",
          "name": "_id",
          "type": "uint256"
        }
      ],
      "name": "toggleTask",
      "outputs": [],
      "payable": false,
      "stateMutability": "nonpayable",
      "type": "function"
    }
  ],
  "bytecode": "0x60806040526000805534801561001457600080fd5b5060408051808201909152600781526654692d64696e6760c81b6020820152610045906001600160e01b036100b116565b60408051808201909152600b81526a5365636f6e64207461736b60a81b6020820152610079906001600160e01b036100b116565b60408051808201909152600a8152695468697264207461736b60b01b60208201526100ac906001600160e01b036100b116565b6101b8565b60008054600190810180835560408051606081018252828152602080820187815282840187905293865284815291909420845181559151805192936100fe9390850192919091019061011d565b50604091909101516002909101805460ff191691151591909117905550565b828054600181600116156101000203166002900490600052602060002090601f016020900481019282601f1061015e57805160ff191683800117855561018b565b8280016001018555821561018b579182015b8281111561018b578251825591602001919060010190610170565b5061019792915061019b565b5090565b6101b591905b8082111561019757600081556001016101a1565b90565b6103eb806101c76000396000f3fe608060405234801561001057600080fd5b506004361061004c5760003560e01c8063111002aa14610051578063613137a4146100f95780638d97767214610116578063b6cb58a5146101bd575b600080fd5b6100f76004803603602081101561006757600080fd5b81019060208101813564010000000081111561008257600080fd5b82018360208201111561009457600080fd5b803590602001918460018302840111640100000000831117156100b657600080fd5b91908080601f0160208091040260200160405190810160405280939291908181526020018383808284376000920191909152509295506101d7945050505050565b005b6100f76004803603602081101561010f57600080fd5b5035610243565b6101336004803603602081101561012c57600080fd5b5035610266565b604051808481526020018060200183151515158152602001828103825284818151815260200191508051906020019080838360005b83811015610180578181015183820152602001610168565b50505050905090810190601f1680156101ad5780820380516001836020036101000a031916815260200191505b5094505050505060405180910390f35b6101c5610315565b60408051918252519081900360200190f35b60008054600190810180835560408051606081018252828152602080820187815282840187905293865284815291909420845181559151805192936102249390850192919091019061031b565b50604091909101516002909101805460ff191691151591909117905550565b6000908152600160205260409020600201805460ff19811660ff90911615179055565b600160208181526000928352604092839020805481840180548651600296821615610100026000190190911695909504601f810185900485028601850190965285855290949193929091908301828280156103025780601f106102d757610100808354040283529160200191610302565b820191906000526020600020905b8154815290600101906020018083116102e557829003601f168201915b5050506002909301549192505060ff1683565b60005481565b828054600181600116156101000203166002900490600052602060002090601f016020900481019282601f1061035c57805160ff1916838001178555610389565b82800160010185558215610389579182015b8281111561038957825182559160200191906001019061036e565b50610395929150610399565b5090565b6103b391905b80821115610395576000815560010161039f565b9056fea265627a7a72315820582c7a74eaf6426781eca3ddc24592b50cffb92f7e6da670e82665b816af350564736f6c63430005100032",
  "source": "pragma solidity ^0.5.0;\n\ncontract TodoList {\n    uint public taskCount = 0;\n\n    struct Task {\n        uint id;\n        string content;\n        bool completed;\n    }\n\n    mapping(uint=> Task) public tasks;\n    constructor() public {\n        // function called when contract is run for the 1st time\n        createTask(\"Ti-ding\");\n        createTask(\"Second task\");\n        createTask(\"Third task\");\n    }\n\n    function createTask(string memory _content) public {\n        taskCount++;\n        tasks[taskCount] = Task(taskCount, _content, false);\n    }\n\n    function toggleTask(uint _id) public {\n        tasks[_id].completed = !tasks[_id].completed;\n    }\n}",
  "sourcePath": "/home/einzelganger/Storage/BlockChain/BIBENDUM/contracts/TodoList.sol",
  "compiler": {
    "name": "solc",
    "version": "0.5.16+commit.9c3226ce.Emscripten.clang"
  },
  "schemaVersion": "3.4.1",
  "updatedAt": "2021-07-22T11:25:12.988Z",
  "devdoc": {
    "methods": {}
  },
  "userdoc": {
    "methods": {}
  }
}